{
  "contractName": "Forum",
  "abi": [
    {
      "constant": true,
      "inputs": [],
      "name": "tokenContract",
      "outputs": [
        {
          "name": "",
          "type": "address"
        }
      ],
      "payable": false,
      "stateMutability": "view",
      "type": "function"
    },
    {
      "constant": true,
      "inputs": [],
      "name": "tokenPrice",
      "outputs": [
        {
          "name": "",
          "type": "uint256"
        }
      ],
      "payable": false,
      "stateMutability": "view",
      "type": "function"
    },
    {
      "inputs": [
        {
          "name": "_tokenContract",
          "type": "address"
        },
        {
          "name": "_tokenPrice",
          "type": "uint256"
        }
      ],
      "payable": false,
      "stateMutability": "nonpayable",
      "type": "constructor"
    },
    {
      "anonymous": false,
      "inputs": [
        {
          "indexed": true,
          "name": "_owner",
          "type": "address"
        },
        {
          "indexed": true,
          "name": "_discussionId",
          "type": "uint256"
        },
        {
          "indexed": true,
          "name": "_postId",
          "type": "uint256"
        },
        {
          "indexed": false,
          "name": "_bid",
          "type": "uint256"
        }
      ],
      "name": "NewPost",
      "type": "event"
    },
    {
      "constant": false,
      "inputs": [
        {
          "name": "_discussionId",
          "type": "uint256"
        },
        {
          "name": "_minBid",
          "type": "uint256"
        }
      ],
      "name": "newDiscussion",
      "outputs": [
        {
          "name": "success",
          "type": "bool"
        }
      ],
      "payable": false,
      "stateMutability": "nonpayable",
      "type": "function"
    },
    {
      "constant": false,
      "inputs": [
        {
          "name": "_discussionId",
          "type": "uint256"
        },
        {
          "name": "_postId",
          "type": "uint256"
        },
        {
          "name": "_parentId",
          "type": "uint256"
        },
        {
          "name": "_bid",
          "type": "uint256"
        }
      ],
      "name": "addPost",
      "outputs": [
        {
          "name": "success",
          "type": "bool"
        }
      ],
      "payable": true,
      "stateMutability": "payable",
      "type": "function"
    },
    {
      "constant": true,
      "inputs": [
        {
          "name": "x",
          "type": "uint256"
        },
        {
          "name": "y",
          "type": "uint256"
        }
      ],
      "name": "multiply",
      "outputs": [
        {
          "name": "z",
          "type": "uint256"
        }
      ],
      "payable": false,
      "stateMutability": "pure",
      "type": "function"
    }
  ],
  "bytecode": "0x608060405234801561001057600080fd5b50604051604080610a928339810180604052604081101561003057600080fd5b810190808051906020019092919080519060200190929190505050816000806101000a81548173ffffffffffffffffffffffffffffffffffffffff021916908373ffffffffffffffffffffffffffffffffffffffff1602179055508060018190555033600260006101000a81548173ffffffffffffffffffffffffffffffffffffffff021916908373ffffffffffffffffffffffffffffffffffffffff16021790555050506109ae806100e46000396000f3fe60806040526004361061004a5760003560e01c8063165c4a161461004f57806355a373d6146100a85780636c98effa146100ff5780637ff9b5961461015c578063b1d59ac414610187575b600080fd5b34801561005b57600080fd5b506100926004803603604081101561007257600080fd5b8101908080359060200190929190803590602001909291905050506101eb565b6040518082815260200191505060405180910390f35b3480156100b457600080fd5b506100bd610280565b604051808273ffffffffffffffffffffffffffffffffffffffff1673ffffffffffffffffffffffffffffffffffffffff16815260200191505060405180910390f35b34801561010b57600080fd5b506101426004803603604081101561012257600080fd5b8101908080359060200190929190803590602001909291905050506102a5565b604051808215151515815260200191505060405180910390f35b34801561016857600080fd5b506101716103a5565b6040518082815260200191505060405180910390f35b6101d16004803603608081101561019d57600080fd5b81019080803590602001909291908035906020019092919080359060200190929190803590602001909291905050506103ab565b604051808215151515815260200191505060405180910390f35b600080821480610208575082828385029250828161020557fe5b04145b61027a576040517f08c379a00000000000000000000000000000000000000000000000000000000081526004018080602001828103825260148152602001807f6d756c7469706c69636174696f6e20636865636b00000000000000000000000081525060200191505060405180910390fd5b92915050565b6000809054906101000a900473ffffffffffffffffffffffffffffffffffffffff1681565b600080600360008581526020019081526020016000205414610312576040517f08c379a000000000000000000000000000000000000000000000000000000000815260040180806020018281038252602e815260200180610955602e913960400191505060405180910390fd5b6000821161036b576040517f08c379a000000000000000000000000000000000000000000000000000000000815260040180806020018281038252602581526020018061090e6025913960400191505060405180910390fd5b8160036000858152602001908152602001600020819055508160046000858152602001908152602001600020819055506001905092915050565b60015481565b600080831415610432576103bf85836102a5565b610431576040517f08c379a00000000000000000000000000000000000000000000000000000000081526004018080602001828103825260178152602001807f6e65772064697363757373696f6e206372656174696f6e00000000000000000081525060200191505060405180910390fd5b5b61043e826001546101eb565b34146104b2576040517f08c379a000000000000000000000000000000000000000000000000000000000815260040180806020018281038252601a8152602001807f636865636b20746f6b656e206d756c7469706c69636174696f6e00000000000081525060200191505060405180910390fd5b600460008681526020019081526020016000205482101561051e576040517f08c379a00000000000000000000000000000000000000000000000000000000081526004018080602001828103825260228152602001806109336022913960400191505060405180910390fd5b816000809054906101000a900473ffffffffffffffffffffffffffffffffffffffff1673ffffffffffffffffffffffffffffffffffffffff166370a08231336040518263ffffffff1660e01b8152600401808273ffffffffffffffffffffffffffffffffffffffff1673ffffffffffffffffffffffffffffffffffffffff16815260200191505060206040518083038186803b1580156105bd57600080fd5b505afa1580156105d1573d6000803e3d6000fd5b505050506040513d60208110156105e757600080fd5b8101908080519060200190929190505050101561066c576040517f08c379a000000000000000000000000000000000000000000000000000000000815260040180806020018281038252601f8152602001807f757365722073686f756c64206861766520656e6f7567682062616c616e63650081525060200191505060405180910390fd5b6000809054906101000a900473ffffffffffffffffffffffffffffffffffffffff1673ffffffffffffffffffffffffffffffffffffffff166323b872dd3330856040518463ffffffff1660e01b8152600401808473ffffffffffffffffffffffffffffffffffffffff1673ffffffffffffffffffffffffffffffffffffffff1681526020018373ffffffffffffffffffffffffffffffffffffffff1673ffffffffffffffffffffffffffffffffffffffff1681526020018281526020019350505050602060405180830381600087803b15801561074857600080fd5b505af115801561075c573d6000803e3d6000fd5b505050506040513d602081101561077257600080fd5b81019080805190602001909291905050506107f5576040517f08c379a000000000000000000000000000000000000000000000000000000000815260040180806020018281038252601d8152602001807f7472616e736665722073686f756c64206265207375636365737366756c00000081525060200191505060405180910390fd5b6107fd6108f3565b6040518060400160405280868152602001848152509050600560003373ffffffffffffffffffffffffffffffffffffffff1673ffffffffffffffffffffffffffffffffffffffff1681526020019081526020016000208190806001815401808255809150509060018203906000526020600020906002020160009091929091909150600082015181600001556020820151816001015550505084863373ffffffffffffffffffffffffffffffffffffffff167f682b781c2cf8f3f8d9ee8754d8f2d31294b38df2c2aa24304bdd83e00cb3e8d9866040518082815260200191505060405180910390a46001915050949350505050565b60405180604001604052806000815260200160008152509056fe4d696e696d756d20626964206d7573742062652067726561746572207468616e207a65726f6269642073686f756c64207175616c69667920666f72206d696e696d756d206269646e65772064697363757373696f6e496420697320696e76616c69642c20706f6f6c206973206e6f7420656d707479a165627a7a7230582088f08cde963a577a3788cf8beebd5df82139a272d73b37388a5366520a27a6b80029",
  "source": "pragma solidity ^0.5.0;\n\nimport \"./ArgetherToken.sol\";\n\ncontract Forum {\n    // token contract instance variable\n    ArgetherToken public tokenContract;\n    uint256 public tokenPrice;\n    address admin;\n\n    // post object structure\n    struct Post{\n        uint256 postId;\n        uint256 bid;\n    }\n\n    // new discussion event\n    event NewPost(\n        address indexed _owner,\n        uint256 indexed _discussionId,\n        uint256 indexed _postId,\n        uint256 _bid\n    );\n\n    // map discussion id to the total pool of the discussion and the minimum bid\n    mapping(uint => uint) poolOf;\n    mapping(uint => uint) minBidOf;\n    // track user posts\n    mapping(address => Post[]) userPosts;\n    // track user votes (user address to postId to vote value)\n    mapping(address => mapping(uint => uint)) votesOf;\n\n\n    constructor (ArgetherToken _tokenContract, uint256 _tokenPrice) public {\n        // token contract\n        tokenContract = _tokenContract;\n        tokenPrice = _tokenPrice;\n        admin = msg.sender;\n    }\n\n    function newDiscussion(uint _discussionId, uint _minBid) public returns (bool success) {\n        // ensure that pool is empty for new discussionId\n        require(poolOf[_discussionId] == 0, 'new discussionId is invalid, pool is not empty');\n        // check minimum bid\n        require(_minBid > 0, 'Minimum bid must be greater than zero');\n        // add discusionId to pool mapping\n        poolOf[_discussionId] = _minBid;\n        minBidOf[_discussionId] = _minBid;\n        // return a boolean\n        return true;\n    }\n\n    function addPost(uint256 _discussionId, uint256 _postId, uint256 _parentId, uint256 _bid) public payable returns (bool success) {\n        // check if its a new discussion\n        if(_parentId == 0){\n            require(newDiscussion(_discussionId, _bid), 'new discussion creation');\n        }\n        // require that value is equal to tokens\n        require(msg.value == multiply(_bid, tokenPrice), \"check token multiplication\");\n        // require that bid >= minimum bid\n        require(_bid >= minBidOf[_discussionId], 'bid should qualify for minimum bid');\n        // require that poster has enough tokens\n        require(tokenContract.balanceOf(msg.sender) >= _bid, 'user should have enough balance');\n        // require that transfer is successful\n        require(tokenContract.transferFrom(msg.sender, address(this), _bid), 'transfer should be successful');\n        // create and add post\n        Post memory newPost = Post({postId: _postId, bid: _bid});\n        userPosts[msg.sender].push(newPost);\n        // trigger newpost event\n        emit NewPost(msg.sender, _discussionId, _postId, _bid);\n        // return bool\n        return true;\n    }\n\n    function multiply(uint x, uint y) public pure returns (uint z) {\n        require(y == 0 || (z = x * y) / y == x, 'multiplication check');\n    }\n}",
  "sourcePath": "/home/unas/projects/forum/contracts/Forum.sol",
  "compiler": {
    "name": "solc",
    "version": "0.5.8+commit.23d335f2.Emscripten.clang"
  },
  "schemaVersion": "3.0.12",
  "updatedAt": "2019-11-06T16:24:55.681Z",
  "devdoc": {
    "methods": {}
  },
  "userdoc": {
    "methods": {}
  }
}