{
  "contractName": "Forum",
  "abi": [
    {
      "constant": true,
      "inputs": [
        {
          "name": "",
          "type": "string"
        }
      ],
      "name": "poolOf",
      "outputs": [
        {
          "name": "",
          "type": "uint256"
        }
      ],
      "payable": false,
      "stateMutability": "view",
      "type": "function"
    },
    {
      "constant": true,
      "inputs": [],
      "name": "tokenContract",
      "outputs": [
        {
          "name": "",
          "type": "address"
        }
      ],
      "payable": false,
      "stateMutability": "view",
      "type": "function"
    },
    {
      "constant": true,
      "inputs": [
        {
          "name": "",
          "type": "string"
        }
      ],
      "name": "minBidOf",
      "outputs": [
        {
          "name": "",
          "type": "uint256"
        }
      ],
      "payable": false,
      "stateMutability": "view",
      "type": "function"
    },
    {
      "constant": true,
      "inputs": [],
      "name": "tokenPrice",
      "outputs": [
        {
          "name": "",
          "type": "uint256"
        }
      ],
      "payable": false,
      "stateMutability": "view",
      "type": "function"
    },
    {
      "constant": true,
      "inputs": [
        {
          "name": "",
          "type": "address"
        },
        {
          "name": "",
          "type": "uint256"
        }
      ],
      "name": "userPosts",
      "outputs": [
        {
          "name": "postId",
          "type": "string"
        },
        {
          "name": "bid",
          "type": "uint256"
        }
      ],
      "payable": false,
      "stateMutability": "view",
      "type": "function"
    },
    {
      "constant": true,
      "inputs": [],
      "name": "voteBid",
      "outputs": [
        {
          "name": "",
          "type": "uint256"
        }
      ],
      "payable": false,
      "stateMutability": "view",
      "type": "function"
    },
    {
      "constant": true,
      "inputs": [
        {
          "name": "",
          "type": "address"
        },
        {
          "name": "",
          "type": "string"
        }
      ],
      "name": "votesOf",
      "outputs": [
        {
          "name": "",
          "type": "uint256"
        }
      ],
      "payable": false,
      "stateMutability": "view",
      "type": "function"
    },
    {
      "constant": true,
      "inputs": [],
      "name": "admin",
      "outputs": [
        {
          "name": "",
          "type": "address"
        }
      ],
      "payable": false,
      "stateMutability": "view",
      "type": "function"
    },
    {
      "inputs": [
        {
          "name": "_tokenContract",
          "type": "address"
        },
        {
          "name": "_tokenPrice",
          "type": "uint256"
        }
      ],
      "payable": false,
      "stateMutability": "nonpayable",
      "type": "constructor"
    },
    {
      "anonymous": false,
      "inputs": [
        {
          "indexed": true,
          "name": "_owner",
          "type": "address"
        },
        {
          "indexed": true,
          "name": "_discussionId",
          "type": "string"
        },
        {
          "indexed": true,
          "name": "_postId",
          "type": "string"
        },
        {
          "indexed": false,
          "name": "_bid",
          "type": "uint256"
        }
      ],
      "name": "NewPost",
      "type": "event"
    },
    {
      "anonymous": false,
      "inputs": [
        {
          "indexed": true,
          "name": "_user",
          "type": "address"
        },
        {
          "indexed": true,
          "name": "_postId",
          "type": "string"
        }
      ],
      "name": "Vote",
      "type": "event"
    },
    {
      "constant": false,
      "inputs": [
        {
          "name": "_discussionId",
          "type": "string"
        },
        {
          "name": "_minBid",
          "type": "uint256"
        }
      ],
      "name": "newDiscussion",
      "outputs": [
        {
          "name": "success",
          "type": "bool"
        }
      ],
      "payable": false,
      "stateMutability": "nonpayable",
      "type": "function"
    },
    {
      "constant": false,
      "inputs": [
        {
          "name": "_discussionId",
          "type": "string"
        },
        {
          "name": "_postId",
          "type": "string"
        },
        {
          "name": "_parentId",
          "type": "string"
        },
        {
          "name": "_bid",
          "type": "uint256"
        }
      ],
      "name": "addPost",
      "outputs": [
        {
          "name": "success",
          "type": "bool"
        }
      ],
      "payable": true,
      "stateMutability": "payable",
      "type": "function"
    },
    {
      "constant": false,
      "inputs": [
        {
          "name": "_discussionId",
          "type": "string"
        },
        {
          "name": "_postId",
          "type": "string"
        }
      ],
      "name": "upvote",
      "outputs": [
        {
          "name": "success",
          "type": "bool"
        }
      ],
      "payable": true,
      "stateMutability": "payable",
      "type": "function"
    },
    {
      "constant": true,
      "inputs": [
        {
          "name": "x",
          "type": "uint256"
        },
        {
          "name": "y",
          "type": "uint256"
        }
      ],
      "name": "multiply",
      "outputs": [
        {
          "name": "z",
          "type": "uint256"
        }
      ],
      "payable": false,
      "stateMutability": "pure",
      "type": "function"
    },
    {
      "constant": true,
      "inputs": [
        {
          "name": "s1",
          "type": "string"
        },
        {
          "name": "s2",
          "type": "string"
        }
      ],
      "name": "compareStringsbyBytes",
      "outputs": [
        {
          "name": "",
          "type": "bool"
        }
      ],
      "payable": false,
      "stateMutability": "pure",
      "type": "function"
    }
  ],
  "bytecode": "0x608060405234801561001057600080fd5b5060405160408061211a8339810180604052604081101561003057600080fd5b810190808051906020019092919080519060200190929190505050816000806101000a81548173ffffffffffffffffffffffffffffffffffffffff021916908373ffffffffffffffffffffffffffffffffffffffff16021790555080600181905550600560028190555033600360006101000a81548173ffffffffffffffffffffffffffffffffffffffff021916908373ffffffffffffffffffffffffffffffffffffffff160217905550505061202e806100ec6000396000f3fe6080604052600436106100c15760003560e01c80635f0baca31161007f578063d52fd8c411610059578063d52fd8c414610893578063e17bfd16146108be578063e9a734ff146109ba578063f851a44014610b31576100c1565b80635f0baca3146106b15780637ff9b5961461078d5780638064d149146107b8576100c1565b8062717631146100c6578063013427e9146102305780631018e0371461031a578063165c4a16146103f657806355a373d61461044f57806357e8f8cf146104a6575b600080fd5b610216600480360360408110156100dc57600080fd5b81019080803590602001906401000000008111156100f957600080fd5b82018360208201111561010b57600080fd5b8035906020019184600183028401116401000000008311171561012d57600080fd5b91908080601f016020809104026020016040519081016040528093929190818152602001838380828437600081840152601f19601f8201169050808301925050505050505091929192908035906020019064010000000081111561019057600080fd5b8201836020820111156101a257600080fd5b803590602001918460018302840111640100000000831117156101c457600080fd5b91908080601f016020809104026020016040519081016040528093929190818152602001838380828437600081840152601f19601f820116905080830192505050505050509192919290505050610b88565b604051808215151515815260200191505060405180910390f35b34801561023c57600080fd5b506103006004803603604081101561025357600080fd5b810190808035906020019064010000000081111561027057600080fd5b82018360208201111561028257600080fd5b803590602001918460018302840111640100000000831117156102a457600080fd5b91908080601f016020809104026020016040519081016040528093929190818152602001838380828437600081840152601f19601f8201169050808301925050505050505091929192908035906020019092919050505061123f565b604051808215151515815260200191505060405180910390f35b34801561032657600080fd5b506103e06004803603602081101561033d57600080fd5b810190808035906020019064010000000081111561035a57600080fd5b82018360208201111561036c57600080fd5b8035906020019184600183028401116401000000008311171561038e57600080fd5b91908080601f016020809104026020016040519081016040528093929190818152602001838380828437600081840152601f19601f820116905080830192505050505050509192919290505050611441565b6040518082815260200191505060405180910390f35b34801561040257600080fd5b506104396004803603604081101561041957600080fd5b81019080803590602001909291908035906020019092919050505061146f565b6040518082815260200191505060405180910390f35b34801561045b57600080fd5b50610464611504565b604051808273ffffffffffffffffffffffffffffffffffffffff1673ffffffffffffffffffffffffffffffffffffffff16815260200191505060405180910390f35b610697600480360360808110156104bc57600080fd5b81019080803590602001906401000000008111156104d957600080fd5b8201836020820111156104eb57600080fd5b8035906020019184600183028401116401000000008311171561050d57600080fd5b91908080601f016020809104026020016040519081016040528093929190818152602001838380828437600081840152601f19601f8201169050808301925050505050505091929192908035906020019064010000000081111561057057600080fd5b82018360208201111561058257600080fd5b803590602001918460018302840111640100000000831117156105a457600080fd5b91908080601f016020809104026020016040519081016040528093929190818152602001838380828437600081840152601f19601f8201169050808301925050505050505091929192908035906020019064010000000081111561060757600080fd5b82018360208201111561061957600080fd5b8035906020019184600183028401116401000000008311171561063b57600080fd5b91908080601f016020809104026020016040519081016040528093929190818152602001838380828437600081840152601f19601f82011690508083019250505050505050919291929080359060200190929190505050611529565b604051808215151515815260200191505060405180910390f35b3480156106bd57600080fd5b50610777600480360360208110156106d457600080fd5b81019080803590602001906401000000008111156106f157600080fd5b82018360208201111561070357600080fd5b8035906020019184600183028401116401000000008311171561072557600080fd5b91908080601f016020809104026020016040519081016040528093929190818152602001838380828437600081840152601f19601f820116905080830192505050505050509192919290505050611bd6565b6040518082815260200191505060405180910390f35b34801561079957600080fd5b506107a2611c04565b6040518082815260200191505060405180910390f35b3480156107c457600080fd5b50610811600480360360408110156107db57600080fd5b81019080803573ffffffffffffffffffffffffffffffffffffffff16906020019092919080359060200190929190505050611c0a565b6040518080602001838152602001828103825284818151815260200191508051906020019080838360005b8381101561085757808201518184015260208101905061083c565b50505050905090810190601f1680156108845780820380516001836020036101000a031916815260200191505b50935050505060405180910390f35b34801561089f57600080fd5b506108a8611ce0565b6040518082815260200191505060405180910390f35b3480156108ca57600080fd5b506109a4600480360360408110156108e157600080fd5b81019080803573ffffffffffffffffffffffffffffffffffffffff1690602001909291908035906020019064010000000081111561091e57600080fd5b82018360208201111561093057600080fd5b8035906020019184600183028401116401000000008311171561095257600080fd5b91908080601f016020809104026020016040519081016040528093929190818152602001838380828437600081840152601f19601f820116905080830192505050505050509192919290505050611ce6565b6040518082815260200191505060405180910390f35b3480156109c657600080fd5b50610b17600480360360408110156109dd57600080fd5b81019080803590602001906401000000008111156109fa57600080fd5b820183602082011115610a0c57600080fd5b80359060200191846001830284011164010000000083111715610a2e57600080fd5b91908080601f016020809104026020016040519081016040528093929190818152602001838380828437600081840152601f19601f82011690508083019250505050505050919291929080359060200190640100000000811115610a9157600080fd5b820183602082011115610aa357600080fd5b80359060200191846001830284011164010000000083111715610ac557600080fd5b91908080601f016020809104026020016040519081016040528093929190818152602001838380828437600081840152601f19601f820116905080830192505050505050509192919290505050611d21565b604051808215151515815260200191505060405180910390f35b348015610b3d57600080fd5b50610b46611e10565b604051808273ffffffffffffffffffffffffffffffffffffffff1673ffffffffffffffffffffffffffffffffffffffff16815260200191505060405180910390f35b6000610b97600560015461146f565b3414610bee576040517f08c379a0000000000000000000000000000000000000000000000000000000008152600401808060200182810382526021815260200180611fb46021913960400191505060405180910390fd5b60056000809054906101000a900473ffffffffffffffffffffffffffffffffffffffff1673ffffffffffffffffffffffffffffffffffffffff166370a08231336040518263ffffffff1660e01b8152600401808273ffffffffffffffffffffffffffffffffffffffff1673ffffffffffffffffffffffffffffffffffffffff16815260200191505060206040518083038186803b158015610c8e57600080fd5b505afa158015610ca2573d6000803e3d6000fd5b505050506040513d6020811015610cb857600080fd5b81019080805190602001909291905050501015610d20576040517f08c379a0000000000000000000000000000000000000000000000000000000008152600401808060200182810382526028815260200180611ef66028913960400191505060405180910390fd5b6000809054906101000a900473ffffffffffffffffffffffffffffffffffffffff1673ffffffffffffffffffffffffffffffffffffffff166323b872dd333060056040518463ffffffff1660e01b8152600401808473ffffffffffffffffffffffffffffffffffffffff1673ffffffffffffffffffffffffffffffffffffffff1681526020018373ffffffffffffffffffffffffffffffffffffffff1673ffffffffffffffffffffffffffffffffffffffff1681526020018281526020019350505050602060405180830381600087803b158015610dfd57600080fd5b505af1158015610e11573d6000803e3d6000fd5b505050506040513d6020811015610e2757600080fd5b8101908080519060200190929190505050610e8d576040517f08c379a000000000000000000000000000000000000000000000000000000000815260040180806020018281038252602e815260200180611f65602e913960400191505060405180910390fd5b6001600760003373ffffffffffffffffffffffffffffffffffffffff1673ffffffffffffffffffffffffffffffffffffffff168152602001908152602001600020836040518082805190602001908083835b60208310610f025780518252602082019150602081019050602083039250610edf565b6001836020036101000a0380198251168184511680821785525050505050509050019150509081526020016040518091039020541415610f8d576040517f08c379a0000000000000000000000000000000000000000000000000000000008152600401808060200182810382526021815260200180611f936021913960400191505060405180910390fd5b60006004846040518082805190602001908083835b60208310610fc55780518252602082019150602081019050602083039250610fa2565b6001836020036101000a038019825116818451168082178552505050505050905001915050908152602001604051809103902054141561106d576040517f08c379a000000000000000000000000000000000000000000000000000000000815260040180806020018281038252601f8152602001807f73686f756c6420626520612076616c69642064697363757373696f6e2069640081525060200191505060405180910390fd5b6001600760003373ffffffffffffffffffffffffffffffffffffffff1673ffffffffffffffffffffffffffffffffffffffff168152602001908152602001600020836040518082805190602001908083835b602083106110e257805182526020820191506020810190506020830392506110bf565b6001836020036101000a03801982511681845116808217855250505050505090500191505090815260200160405180910390208190555060056004846040518082805190602001908083835b60208310611151578051825260208201915060208101905060208303925061112e565b6001836020036101000a038019825116818451168082178552505050505050905001915050908152602001604051809103902060008282540192505081905550816040518082805190602001908083835b602083106111c557805182526020820191506020810190506020830392506111a2565b6001836020036101000a03801982511681845116808217855250505050505090500191505060405180910390203373ffffffffffffffffffffffffffffffffffffffff167fc8890be6e657dc734d1fb91641621bd1bc2bf263edd04e4198b4db572cc680f660405160405180910390a36001905092915050565b6000806004846040518082805190602001908083835b602083106112785780518252602082019150602081019050602083039250611255565b6001836020036101000a03801982511681845116808217855250505050505090500191505090815260200160405180910390205414611302576040517f08c379a000000000000000000000000000000000000000000000000000000000815260040180806020018281038252602e815260200180611fd5602e913960400191505060405180910390fd5b6000821161135b576040517f08c379a0000000000000000000000000000000000000000000000000000000008152600401808060200182810382526025815260200180611f1e6025913960400191505060405180910390fd5b816004846040518082805190602001908083835b60208310611392578051825260208201915060208101905060208303925061136f565b6001836020036101000a038019825116818451168082178552505050505050905001915050908152602001604051809103902081905550816005846040518082805190602001908083835b6020831061140057805182526020820191506020810190506020830392506113dd565b6001836020036101000a0380198251168184511680821785525050505050509050019150509081526020016040518091039020819055506001905092915050565b6004818051602081018201805184825260208301602085012081835280955050505050506000915090505481565b60008082148061148c575082828385029250828161148957fe5b04145b6114fe576040517f08c379a00000000000000000000000000000000000000000000000000000000081526004018080602001828103825260148152602001807f6d756c7469706c69636174696f6e20636865636b00000000000000000000000081525060200191505060405180910390fd5b92915050565b6000809054906101000a900473ffffffffffffffffffffffffffffffffffffffff1681565b600061156a836040518060400160405280600181526020017f3000000000000000000000000000000000000000000000000000000000000000815250611d21565b156115ec57611579858361123f565b6115eb576040517f08c379a00000000000000000000000000000000000000000000000000000000081526004018080602001828103825260178152602001807f6e65772064697363757373696f6e206372656174696f6e00000000000000000081525060200191505060405180910390fd5b5b6115f88260015461146f565b341461166c576040517f08c379a000000000000000000000000000000000000000000000000000000000815260040180806020018281038252601a8152602001807f636865636b20746f6b656e206d756c7469706c69636174696f6e00000000000081525060200191505060405180910390fd5b6005856040518082805190602001908083835b602083106116a2578051825260208201915060208101905060208303925061167f565b6001836020036101000a03801982511681845116808217855250505050505090500191505090815260200160405180910390205482101561172e576040517f08c379a0000000000000000000000000000000000000000000000000000000008152600401808060200182810382526022815260200180611f436022913960400191505060405180910390fd5b816000809054906101000a900473ffffffffffffffffffffffffffffffffffffffff1673ffffffffffffffffffffffffffffffffffffffff166370a08231336040518263ffffffff1660e01b8152600401808273ffffffffffffffffffffffffffffffffffffffff1673ffffffffffffffffffffffffffffffffffffffff16815260200191505060206040518083038186803b1580156117cd57600080fd5b505afa1580156117e1573d6000803e3d6000fd5b505050506040513d60208110156117f757600080fd5b8101908080519060200190929190505050101561187c576040517f08c379a000000000000000000000000000000000000000000000000000000000815260040180806020018281038252601f8152602001807f757365722073686f756c64206861766520656e6f7567682062616c616e63650081525060200191505060405180910390fd5b6000809054906101000a900473ffffffffffffffffffffffffffffffffffffffff1673ffffffffffffffffffffffffffffffffffffffff166323b872dd3330856040518463ffffffff1660e01b8152600401808473ffffffffffffffffffffffffffffffffffffffff1673ffffffffffffffffffffffffffffffffffffffff1681526020018373ffffffffffffffffffffffffffffffffffffffff1673ffffffffffffffffffffffffffffffffffffffff1681526020018281526020019350505050602060405180830381600087803b15801561195857600080fd5b505af115801561196c573d6000803e3d6000fd5b505050506040513d602081101561198257600080fd5b8101908080519060200190929190505050611a05576040517f08c379a000000000000000000000000000000000000000000000000000000000815260040180806020018281038252601d8152602001807f7472616e736665722073686f756c64206265207375636365737366756c00000081525060200191505060405180910390fd5b611a0d611e36565b6040518060400160405280868152602001848152509050600660003373ffffffffffffffffffffffffffffffffffffffff1673ffffffffffffffffffffffffffffffffffffffff16815260200190815260200160002081908060018154018082558091505090600182039060005260206000209060020201600090919290919091506000820151816000019080519060200190611aab929190611e50565b5060208201518160010155505050846040518082805190602001908083835b60208310611aed5780518252602082019150602081019050602083039250611aca565b6001836020036101000a0380198251168184511680821785525050505050509050019150506040518091039020866040518082805190602001908083835b60208310611b4e5780518252602082019150602081019050602083039250611b2b565b6001836020036101000a03801982511681845116808217855250505050505090500191505060405180910390203373ffffffffffffffffffffffffffffffffffffffff167f437e0fd3c479cfd078ca3a43377ab78a4d58c3f7eaeee24bb76057f9f7107644866040518082815260200191505060405180910390a46001915050949350505050565b6005818051602081018201805184825260208301602085012081835280955050505050506000915090505481565b60015481565b60066020528160005260406000208181548110611c2357fe5b906000526020600020906002020160009150915050806000018054600181600116156101000203166002900480601f016020809104026020016040519081016040528092919081815260200182805460018160011615610100020316600290048015611cd05780601f10611ca557610100808354040283529160200191611cd0565b820191906000526020600020905b815481529060010190602001808311611cb357829003601f168201915b5050505050908060010154905082565b60025481565b600760205281600052604060002081805160208101820180518482526020830160208501208183528095505050505050600091509150505481565b6000816040516020018082805190602001908083835b60208310611d5a5780518252602082019150602081019050602083039250611d37565b6001836020036101000a03801982511681845116808217855250505050505090500191505060405160208183030381529060405280519060200120836040516020018082805190602001908083835b60208310611dcc5780518252602082019150602081019050602083039250611da9565b6001836020036101000a0380198251168184511680821785525050505050509050019150506040516020818303038152906040528051906020012014905092915050565b600360009054906101000a900473ffffffffffffffffffffffffffffffffffffffff1681565b604051806040016040528060608152602001600081525090565b828054600181600116156101000203166002900490600052602060002090601f016020900481019282601f10611e9157805160ff1916838001178555611ebf565b82800160010185558215611ebf579182015b82811115611ebe578251825591602001919060010190611ea3565b5b509050611ecc9190611ed0565b5090565b611ef291905b80821115611eee576000816000905550600101611ed6565b5090565b9056fe757365722073686f756c64206861766520612062616c616e6365206f66206174206c6561737420354d696e696d756d20626964206d7573742062652067726561746572207468616e207a65726f6269642073686f756c64207175616c69667920666f72206d696e696d756d206269647472616e736665722073686f756c64206265207375636365737366756c2075736572202d3e20636f6e7472616374757365722068617320616c7265616479207570766f7465642074686520706f7374636865636b20776865746865722062696420636f737420697320636f76657265646e65772064697363757373696f6e496420697320696e76616c69642c20706f6f6c206973206e6f7420656d707479a165627a7a723058209157d65943585cf9c0046c979185bbcff145c65ff512042109bc693ff2e0a5050029",
  "source": "pragma solidity ^0.5.0;\n\nimport \"./ArgetherToken.sol\";\n\ncontract Forum {\n    // token contract instance variable\n    ArgetherToken public tokenContract;\n    uint256 public tokenPrice;\n    uint public voteBid;\n    address public admin;\n\n    // post object structure\n    struct Post{\n        string postId;\n        uint256 bid;\n    }\n\n    // new discussion event\n    event NewPost(\n        address indexed _owner,\n        string indexed _discussionId,\n        string indexed _postId,\n        uint256 _bid\n    );\n    // vote event\n    event Vote(\n        address indexed _user,\n        string indexed _postId\n    );\n\n    // map discussion id to the total pool of the discussion and the minimum bid\n    mapping(string => uint) public poolOf;\n    mapping(string => uint) public minBidOf;\n    // track user posts\n    mapping(address => Post[]) public userPosts;\n    // track user votes (user address to postId to vote value)\n    mapping(address => mapping(string => uint)) public votesOf;\n\n\n    constructor (ArgetherToken _tokenContract, uint256 _tokenPrice) public {\n        // token contract\n        tokenContract = _tokenContract;\n        tokenPrice = _tokenPrice;\n        voteBid = 5;\n        admin = msg.sender;\n    }\n\n    function newDiscussion(string memory _discussionId, uint _minBid) public returns (bool success) {\n        // ensure that pool is empty for new discussionId\n        require(poolOf[_discussionId] == 0, 'new discussionId is invalid, pool is not empty');\n        // check minimum bid\n        require(_minBid > 0, 'Minimum bid must be greater than zero');\n        // add discusionId to pool mapping\n        poolOf[_discussionId] = _minBid;\n        minBidOf[_discussionId] = _minBid;\n        // return a boolean\n        return true;\n    }\n\n    function addPost(string memory _discussionId, string memory _postId,\n                                    string memory _parentId, uint256 _bid) public payable returns (bool success) {\n        // check if its a new discussion\n        if(compareStringsbyBytes(_parentId, \"0\")){\n            require(newDiscussion(_discussionId, _bid), 'new discussion creation');\n        }\n        require(msg.value == multiply(_bid, tokenPrice), \"check token multiplication\");\n        // require that bid >= minimum bid\n        require(_bid >= minBidOf[_discussionId], 'bid should qualify for minimum bid');\n        // require that poster has enough tokens\n        require(tokenContract.balanceOf(msg.sender) >= _bid, 'user should have enough balance');\n        // require that transfer is successful\n        require(tokenContract.transferFrom(msg.sender, address(this), _bid), 'transfer should be successful');\n        // create and add post\n        Post memory newPost = Post({postId: _postId, bid: _bid});\n        userPosts[msg.sender].push(newPost);\n        // trigger newpost event\n        emit NewPost(msg.sender, _discussionId, _postId, _bid);\n        // return bool\n        return true;\n    }\n\n    // to upvote a user has to bid 5\n    function upvote(string memory _discussionId, string memory _postId) public payable returns (bool success) {\n        // make sure that bid == 5\n        require(msg.value == multiply(5, tokenPrice), 'check whether bid cost is covered');\n        // require that voter has enough balance\n        require(tokenContract.balanceOf(msg.sender) >= 5, 'user should have a balance of at least 5');\n        // require that the transfer of tokens is successful\n        require(tokenContract.transferFrom(msg.sender, address(this), 5), 'transfer should be successful user -> contract');\n        // check that the post is not already upvoted by the user\n        require(votesOf[msg.sender][_postId] != 1, 'user has already upvoted the post');\n        // check if the disId is valid\n        require(poolOf[_discussionId] != 0, 'should be a valid discussion id');\n        // create the vote\n        votesOf[msg.sender][_postId] = 1;\n        // add bid to the discussion pool\n        poolOf[_discussionId] += 5;\n        // trigger vote event\n        emit Vote(msg.sender, _postId);\n        // return bool\n        return true;\n    }\n\n\n    function multiply(uint x, uint y) public pure returns (uint z) {\n        require(y == 0 || (z = x * y) / y == x, 'multiplication check');\n    }\n\n    function compareStringsbyBytes(string memory s1, string memory s2) public pure returns(bool){\n        return keccak256(abi.encodePacked(s1)) == keccak256(abi.encodePacked(s2));\n    }\n}",
  "sourcePath": "/home/unas/projects/forum/contracts/Forum.sol",
  "compiler": {
    "name": "solc",
    "version": "0.5.8+commit.23d335f2.Emscripten.clang"
  },
  "schemaVersion": "3.0.12",
  "updatedAt": "2019-11-24T15:05:13.470Z",
  "devdoc": {
    "methods": {}
  },
  "userdoc": {
    "methods": {}
  }
}