{
  "contractName": "Forum",
  "abi": [
    {
      "constant": true,
      "inputs": [
        {
          "name": "",
          "type": "string"
        }
      ],
      "name": "parentOf",
      "outputs": [
        {
          "name": "",
          "type": "string"
        }
      ],
      "payable": false,
      "stateMutability": "view",
      "type": "function"
    },
    {
      "constant": true,
      "inputs": [
        {
          "name": "",
          "type": "string"
        }
      ],
      "name": "poolOf",
      "outputs": [
        {
          "name": "",
          "type": "uint256"
        }
      ],
      "payable": false,
      "stateMutability": "view",
      "type": "function"
    },
    {
      "constant": true,
      "inputs": [
        {
          "name": "",
          "type": "string"
        },
        {
          "name": "",
          "type": "uint256"
        }
      ],
      "name": "votersOf",
      "outputs": [
        {
          "name": "",
          "type": "address"
        }
      ],
      "payable": false,
      "stateMutability": "view",
      "type": "function"
    },
    {
      "constant": true,
      "inputs": [
        {
          "name": "",
          "type": "string"
        }
      ],
      "name": "minBidOf",
      "outputs": [
        {
          "name": "",
          "type": "uint256"
        }
      ],
      "payable": false,
      "stateMutability": "view",
      "type": "function"
    },
    {
      "constant": true,
      "inputs": [],
      "name": "tokenPrice",
      "outputs": [
        {
          "name": "",
          "type": "uint256"
        }
      ],
      "payable": false,
      "stateMutability": "view",
      "type": "function"
    },
    {
      "constant": true,
      "inputs": [
        {
          "name": "",
          "type": "string"
        },
        {
          "name": "",
          "type": "uint256"
        }
      ],
      "name": "postIdsOf",
      "outputs": [
        {
          "name": "",
          "type": "string"
        }
      ],
      "payable": false,
      "stateMutability": "view",
      "type": "function"
    },
    {
      "constant": true,
      "inputs": [
        {
          "name": "",
          "type": "string"
        }
      ],
      "name": "ownerOf",
      "outputs": [
        {
          "name": "",
          "type": "address"
        }
      ],
      "payable": false,
      "stateMutability": "view",
      "type": "function"
    },
    {
      "constant": true,
      "inputs": [],
      "name": "voteBid",
      "outputs": [
        {
          "name": "",
          "type": "uint256"
        }
      ],
      "payable": false,
      "stateMutability": "view",
      "type": "function"
    },
    {
      "constant": true,
      "inputs": [],
      "name": "admin",
      "outputs": [
        {
          "name": "",
          "type": "address"
        }
      ],
      "payable": false,
      "stateMutability": "view",
      "type": "function"
    },
    {
      "inputs": [
        {
          "name": "_tokenContract",
          "type": "address"
        },
        {
          "name": "_tokenPrice",
          "type": "uint256"
        },
        {
          "name": "_voteBid",
          "type": "uint256"
        }
      ],
      "payable": false,
      "stateMutability": "nonpayable",
      "type": "constructor"
    },
    {
      "anonymous": false,
      "inputs": [
        {
          "indexed": true,
          "name": "_owner",
          "type": "address"
        },
        {
          "indexed": false,
          "name": "_discussionId",
          "type": "string"
        },
        {
          "indexed": false,
          "name": "_postId",
          "type": "string"
        },
        {
          "indexed": false,
          "name": "_bid",
          "type": "uint256"
        }
      ],
      "name": "NewPost",
      "type": "event"
    },
    {
      "anonymous": false,
      "inputs": [
        {
          "indexed": true,
          "name": "_user",
          "type": "address"
        },
        {
          "indexed": false,
          "name": "_postId",
          "type": "string"
        }
      ],
      "name": "Vote",
      "type": "event"
    },
    {
      "anonymous": false,
      "inputs": [
        {
          "indexed": false,
          "name": "_discussionId",
          "type": "string"
        },
        {
          "indexed": false,
          "name": "_pool",
          "type": "uint256"
        }
      ],
      "name": "Distribute",
      "type": "event"
    },
    {
      "constant": false,
      "inputs": [
        {
          "name": "_discussionId",
          "type": "string"
        },
        {
          "name": "_postId",
          "type": "string"
        },
        {
          "name": "_parentId",
          "type": "string"
        },
        {
          "name": "_bid",
          "type": "uint256"
        }
      ],
      "name": "addPost",
      "outputs": [
        {
          "name": "",
          "type": "bool"
        }
      ],
      "payable": true,
      "stateMutability": "payable",
      "type": "function"
    },
    {
      "constant": false,
      "inputs": [
        {
          "name": "_discussionId",
          "type": "string"
        },
        {
          "name": "_postId",
          "type": "string"
        }
      ],
      "name": "upvote",
      "outputs": [
        {
          "name": "",
          "type": "bool"
        }
      ],
      "payable": true,
      "stateMutability": "payable",
      "type": "function"
    },
    {
      "constant": false,
      "inputs": [
        {
          "name": "_discussionId",
          "type": "string"
        }
      ],
      "name": "distributeRewards",
      "outputs": [
        {
          "name": "",
          "type": "bool"
        }
      ],
      "payable": false,
      "stateMutability": "nonpayable",
      "type": "function"
    },
    {
      "constant": true,
      "inputs": [
        {
          "name": "_discussionId",
          "type": "string"
        }
      ],
      "name": "getDiscussionPostCount",
      "outputs": [
        {
          "name": "",
          "type": "uint256"
        }
      ],
      "payable": false,
      "stateMutability": "view",
      "type": "function"
    },
    {
      "constant": true,
      "inputs": [
        {
          "name": "_postId",
          "type": "string"
        }
      ],
      "name": "getPostVoteCount",
      "outputs": [
        {
          "name": "",
          "type": "uint256"
        }
      ],
      "payable": false,
      "stateMutability": "view",
      "type": "function"
    }
  ],
  "bytecode": "0x608060405234801561001057600080fd5b50604051606080612fad8339810180604052606081101561003057600080fd5b8101908080519060200190929190805190602001909291908051906020019092919050505082600360006101000a81548173ffffffffffffffffffffffffffffffffffffffff021916908373ffffffffffffffffffffffffffffffffffffffff160217905550816000819055508060018190555033600260006101000a81548173ffffffffffffffffffffffffffffffffffffffff021916908373ffffffffffffffffffffffffffffffffffffffff160217905550600a6004819055506019600581905550505050612ea6806101076000396000f3fe6080604052600436106100dc5760003560e01c80637f1573be1161007f578063920ffa2611610059578063920ffa2614610b93578063a2296df314610c9b578063d52fd8c414610d77578063f851a44014610da2576100dc565b80637f1573be146109415780637ff9b59614610a1d578063905f6c5214610a48576100dc565b806332f00c16116100bb57806332f00c161461046857806357e8f8cf1461057a5780635f0baca3146107855780637082028f14610861576100dc565b8062717631146100e157806302abbc7a1461024b5780631018e0371461038c575b600080fd5b610231600480360360408110156100f757600080fd5b810190808035906020019064010000000081111561011457600080fd5b82018360208201111561012657600080fd5b8035906020019184600183028401116401000000008311171561014857600080fd5b91908080601f016020809104026020016040519081016040528093929190818152602001838380828437600081840152601f19601f820116905080830192505050505050509192919290803590602001906401000000008111156101ab57600080fd5b8201836020820111156101bd57600080fd5b803590602001918460018302840111640100000000831117156101df57600080fd5b91908080601f016020809104026020016040519081016040528093929190818152602001838380828437600081840152601f19601f820116905080830192505050505050509192919290505050610df9565b604051808215151515815260200191505060405180910390f35b34801561025757600080fd5b506103116004803603602081101561026e57600080fd5b810190808035906020019064010000000081111561028b57600080fd5b82018360208201111561029d57600080fd5b803590602001918460018302840111640100000000831117156102bf57600080fd5b91908080601f016020809104026020016040519081016040528093929190818152602001838380828437600081840152601f19601f8201169050808301925050505050505091929192905050506114d3565b6040518080602001828103825283818151815260200191508051906020019080838360005b83811015610351578082015181840152602081019050610336565b50505050905090810190601f16801561037e5780820380516001836020036101000a031916815260200191505b509250505060405180910390f35b34801561039857600080fd5b50610452600480360360208110156103af57600080fd5b81019080803590602001906401000000008111156103cc57600080fd5b8201836020820111156103de57600080fd5b8035906020019184600183028401116401000000008311171561040057600080fd5b91908080601f016020809104026020016040519081016040528093929190818152602001838380828437600081840152601f19601f820116905080830192505050505050509192919290505050611599565b6040518082815260200191505060405180910390f35b34801561047457600080fd5b506105386004803603604081101561048b57600080fd5b81019080803590602001906401000000008111156104a857600080fd5b8201836020820111156104ba57600080fd5b803590602001918460018302840111640100000000831117156104dc57600080fd5b91908080601f016020809104026020016040519081016040528093929190818152602001838380828437600081840152601f19601f820116905080830192505050505050509192919290803590602001909291905050506115c7565b604051808273ffffffffffffffffffffffffffffffffffffffff1673ffffffffffffffffffffffffffffffffffffffff16815260200191505060405180910390f35b61076b6004803603608081101561059057600080fd5b81019080803590602001906401000000008111156105ad57600080fd5b8201836020820111156105bf57600080fd5b803590602001918460018302840111640100000000831117156105e157600080fd5b91908080601f016020809104026020016040519081016040528093929190818152602001838380828437600081840152601f19601f8201169050808301925050505050505091929192908035906020019064010000000081111561064457600080fd5b82018360208201111561065657600080fd5b8035906020019184600183028401116401000000008311171561067857600080fd5b91908080601f016020809104026020016040519081016040528093929190818152602001838380828437600081840152601f19601f820116905080830192505050505050509192919290803590602001906401000000008111156106db57600080fd5b8201836020820111156106ed57600080fd5b8035906020019184600183028401116401000000008311171561070f57600080fd5b91908080601f016020809104026020016040519081016040528093929190818152602001838380828437600081840152601f19601f82011690508083019250505050505050919291929080359060200190929190505050611628565b604051808215151515815260200191505060405180910390f35b34801561079157600080fd5b5061084b600480360360208110156107a857600080fd5b81019080803590602001906401000000008111156107c557600080fd5b8201836020820111156107d757600080fd5b803590602001918460018302840111640100000000831117156107f957600080fd5b91908080601f016020809104026020016040519081016040528093929190818152602001838380828437600081840152601f19601f820116905080830192505050505050509192919290505050611fa4565b6040518082815260200191505060405180910390f35b34801561086d57600080fd5b506109276004803603602081101561088457600080fd5b81019080803590602001906401000000008111156108a157600080fd5b8201836020820111156108b357600080fd5b803590602001918460018302840111640100000000831117156108d557600080fd5b91908080601f016020809104026020016040519081016040528093929190818152602001838380828437600081840152601f19601f820116905080830192505050505050509192919290505050611fd2565b604051808215151515815260200191505060405180910390f35b34801561094d57600080fd5b50610a076004803603602081101561096457600080fd5b810190808035906020019064010000000081111561098157600080fd5b82018360208201111561099357600080fd5b803590602001918460018302840111640100000000831117156109b557600080fd5b91908080601f016020809104026020016040519081016040528093929190818152602001838380828437600081840152601f19601f820116905080830192505050505050509192919290505050612997565b6040518082815260200191505060405180910390f35b348015610a2957600080fd5b50610a32612a0d565b6040518082815260200191505060405180910390f35b348015610a5457600080fd5b50610b1860048036036040811015610a6b57600080fd5b8101908080359060200190640100000000811115610a8857600080fd5b820183602082011115610a9a57600080fd5b80359060200191846001830284011164010000000083111715610abc57600080fd5b91908080601f016020809104026020016040519081016040528093929190818152602001838380828437600081840152601f19601f82011690508083019250505050505050919291929080359060200190929190505050612a13565b6040518080602001828103825283818151815260200191508051906020019080838360005b83811015610b58578082015181840152602081019050610b3d565b50505050905090810190601f168015610b855780820380516001836020036101000a031916815260200191505b509250505060405180910390f35b348015610b9f57600080fd5b50610c5960048036036020811015610bb657600080fd5b8101908080359060200190640100000000811115610bd357600080fd5b820183602082011115610be557600080fd5b80359060200191846001830284011164010000000083111715610c0757600080fd5b91908080601f016020809104026020016040519081016040528093929190818152602001838380828437600081840152601f19601f820116905080830192505050505050509192919290505050612aef565b604051808273ffffffffffffffffffffffffffffffffffffffff1673ffffffffffffffffffffffffffffffffffffffff16815260200191505060405180910390f35b348015610ca757600080fd5b50610d6160048036036020811015610cbe57600080fd5b8101908080359060200190640100000000811115610cdb57600080fd5b820183602082011115610ced57600080fd5b80359060200191846001830284011164010000000083111715610d0f57600080fd5b91908080601f016020809104026020016040519081016040528093929190818152602001838380828437600081840152601f19601f820116905080830192505050505050509192919290505050612b38565b6040518082815260200191505060405180910390f35b348015610d8357600080fd5b50610d8c612bae565b6040518082815260200191505060405180910390f35b348015610dae57600080fd5b50610db7612bb4565b604051808273ffffffffffffffffffffffffffffffffffffffff1673ffffffffffffffffffffffffffffffffffffffff16815260200191505060405180910390f35b6000600b836040518082805190602001908083835b60208310610e315780518252602082019150602081019050602083039250610e0e565b6001836020036101000a038019825116818451168082178552505050505050905001915050908152602001604051809103902054421115610ebd576040517f08c379a0000000000000000000000000000000000000000000000000000000008152600401808060200182810382526022815260200180612e046022913960400191505060405180910390fd5b6000543414610f34576040517f08c379a000000000000000000000000000000000000000000000000000000000815260040180806020018281038252601c8152602001807f757365722073686f756c64206861766520626964203120746f6b656e0000000081525060200191505060405180910390fd5b6001600360009054906101000a900473ffffffffffffffffffffffffffffffffffffffff1673ffffffffffffffffffffffffffffffffffffffff166370a08231336040518263ffffffff1660e01b8152600401808273ffffffffffffffffffffffffffffffffffffffff1673ffffffffffffffffffffffffffffffffffffffff16815260200191505060206040518083038186803b158015610fd557600080fd5b505afa158015610fe9573d6000803e3d6000fd5b505050506040513d6020811015610fff57600080fd5b81019080805190602001909291905050501015611084576040517f08c379a00000000000000000000000000000000000000000000000000000000081526004018080602001828103825260208152602001807f766f7465722073686f756c64206861766520656e6f7567682062616c616e636581525060200191505060405180910390fd5b600360009054906101000a900473ffffffffffffffffffffffffffffffffffffffff1673ffffffffffffffffffffffffffffffffffffffff166323b872dd333060016040518463ffffffff1660e01b8152600401808473ffffffffffffffffffffffffffffffffffffffff1673ffffffffffffffffffffffffffffffffffffffff1681526020018373ffffffffffffffffffffffffffffffffffffffff1673ffffffffffffffffffffffffffffffffffffffff1681526020018281526020019350505050602060405180830381600087803b15801561116257600080fd5b505af1158015611176573d6000803e3d6000fd5b505050506040513d602081101561118c57600080fd5b81019080805190602001909291905050506111f2576040517f08c379a000000000000000000000000000000000000000000000000000000000815260040180806020018281038252602f815260200180612e26602f913960400191505060405180910390fd5b6000600a846040518082805190602001908083835b6020831061122a5780518252602082019150602081019050602083039250611207565b6001836020036101000a038019825116818451168082178552505050505050905001915050908152602001604051809103902054116112d1576040517f08c379a000000000000000000000000000000000000000000000000000000000815260040180806020018281038252601a8152602001807f64697363757373696f6e4964206d7573742062652076616c696400000000000081525060200191505060405180910390fd5b600c826040518082805190602001908083835b6020831061130757805182526020820191506020810190506020830392506112e4565b6001836020036101000a03801982511681845116808217855250505050505090500191505090815260200160405180910390203390806001815401808255809150509060018203906000526020600020016000909192909190916101000a81548173ffffffffffffffffffffffffffffffffffffffff021916908373ffffffffffffffffffffffffffffffffffffffff160217905550506001600a846040518082805190602001908083835b602083106113d657805182526020820191506020810190506020830392506113b3565b6001836020036101000a0380198251168184511680821785525050505050509050019150509081526020016040518091039020600082825401925050819055503373ffffffffffffffffffffffffffffffffffffffff167fc8890be6e657dc734d1fb91641621bd1bc2bf263edd04e4198b4db572cc680f6836040518080602001828103825283818151815260200191508051906020019080838360005b8381101561148f578082015181840152602081019050611474565b50505050905090810190601f1680156114bc5780820380516001836020036101000a031916815260200191505b509250505060405180910390a26001905092915050565b6007818051602081018201805184825260208301602085012081835280955050505050506000915090508054600181600116156101000203166002900480601f0160208091040260200160405190810160405280929190818152602001828054600181600116156101000203166002900480156115915780601f1061156657610100808354040283529160200191611591565b820191906000526020600020905b81548152906001019060200180831161157457829003601f168201915b505050505081565b600a818051602081018201805184825260208301602085012081835280955050505050506000915090505481565b600c8280516020810182018051848252602083016020850120818352809550505050505081815481106115f657fe5b906000526020600020016000915091509054906101000a900473ffffffffffffffffffffffffffffffffffffffff1681565b6000611669836040518060400160405280600181526020017f3000000000000000000000000000000000000000000000000000000000000000815250612bda565b1561175057816009866040518082805190602001908083835b602083106116a55780518252602082019150602081019050602083039250611682565b6001836020036101000a0380198251168184511680821785525050505050509050019150509081526020016040518091039020819055506202a3004201600b866040518082805190602001908083835b6020831061171857805182526020820191506020810190506020830392506116f5565b6001836020036101000a0380198251168184511680821785525050505050509050019150509081526020016040518091039020819055505b61175c82600054612cc9565b34146117d0576040517f08c379a000000000000000000000000000000000000000000000000000000000815260040180806020018281038252601a8152602001807f636865636b20746f6b656e206d756c7469706c69636174696f6e00000000000081525060200191505060405180910390fd5b6009856040518082805190602001908083835b6020831061180657805182526020820191506020810190506020830392506117e3565b6001836020036101000a038019825116818451168082178552505050505050905001915050908152602001604051809103902054821015611892576040517f08c379a0000000000000000000000000000000000000000000000000000000008152600401808060200182810382526026815260200180612e556026913960400191505060405180910390fd5b600b856040518082805190602001908083835b602083106118c857805182526020820191506020810190506020830392506118a5565b6001836020036101000a038019825116818451168082178552505050505050905001915050908152602001604051809103902054421115611954576040517f08c379a0000000000000000000000000000000000000000000000000000000008152600401808060200182810382526022815260200180612e046022913960400191505060405180910390fd5b81600360009054906101000a900473ffffffffffffffffffffffffffffffffffffffff1673ffffffffffffffffffffffffffffffffffffffff166370a08231336040518263ffffffff1660e01b8152600401808273ffffffffffffffffffffffffffffffffffffffff1673ffffffffffffffffffffffffffffffffffffffff16815260200191505060206040518083038186803b1580156119f457600080fd5b505afa158015611a08573d6000803e3d6000fd5b505050506040513d6020811015611a1e57600080fd5b81019080805190602001909291905050501015611aa3576040517f08c379a000000000000000000000000000000000000000000000000000000000815260040180806020018281038252601f8152602001807f757365722073686f756c64206861766520656e6f7567682062616c616e63650081525060200191505060405180910390fd5b600360009054906101000a900473ffffffffffffffffffffffffffffffffffffffff1673ffffffffffffffffffffffffffffffffffffffff166323b872dd3330856040518463ffffffff1660e01b8152600401808473ffffffffffffffffffffffffffffffffffffffff1673ffffffffffffffffffffffffffffffffffffffff1681526020018373ffffffffffffffffffffffffffffffffffffffff1673ffffffffffffffffffffffffffffffffffffffff1681526020018281526020019350505050602060405180830381600087803b158015611b8057600080fd5b505af1158015611b94573d6000803e3d6000fd5b505050506040513d6020811015611baa57600080fd5b8101908080519060200190929190505050611c2d576040517f08c379a000000000000000000000000000000000000000000000000000000000815260040180806020018281038252601d8152602001807f7472616e736665722073686f756c64206265207375636365737366756c00000081525060200191505060405180910390fd5b6006856040518082805190602001908083835b60208310611c635780518252602082019150602081019050602083039250611c40565b6001836020036101000a0380198251168184511680821785525050505050509050019150509081526020016040518091039020849080600181540180825580915050906001820390600052602060002001600090919290919091509080519060200190611cd1929190612d5e565b5050336008856040518082805190602001908083835b60208310611d0a5780518252602082019150602081019050602083039250611ce7565b6001836020036101000a038019825116818451168082178552505050505050905001915050908152602001604051809103902060006101000a81548173ffffffffffffffffffffffffffffffffffffffff021916908373ffffffffffffffffffffffffffffffffffffffff160217905550826007856040518082805190602001908083835b60208310611db25780518252602082019150602081019050602083039250611d8f565b6001836020036101000a03801982511681845116808217855250505050505090500191505090815260200160405180910390209080519060200190611df8929190612d5e565b5081600a866040518082805190602001908083835b60208310611e305780518252602082019150602081019050602083039250611e0d565b6001836020036101000a0380198251168184511680821785525050505050509050019150509081526020016040518091039020600082825401925050819055503373ffffffffffffffffffffffffffffffffffffffff167f437e0fd3c479cfd078ca3a43377ab78a4d58c3f7eaeee24bb76057f9f7107644868685604051808060200180602001848152602001838103835286818151815260200191508051906020019080838360005b83811015611ef5578082015181840152602081019050611eda565b50505050905090810190601f168015611f225780820380516001836020036101000a031916815260200191505b50838103825285818151815260200191508051906020019080838360005b83811015611f5b578082015181840152602081019050611f40565b50505050905090810190601f168015611f885780820380516001836020036101000a031916815260200191505b509550505050505060405180910390a260019050949350505050565b6009818051602081018201805184825260208301602085012081835280955050505050506000915090505481565b600080600a836040518082805190602001908083835b6020831061200b5780518252602082019150602081019050602083039250611fe8565b6001836020036101000a0380198251168184511680821785525050505050509050019150509081526020016040518091039020549050600061204c84612997565b905060606006856040518082805190602001908083835b602083106120865780518252602082019150602081019050602083039250612063565b6001836020036101000a0380198251168184511680821785525050505050509050019150509081526020016040518091039020805480602002602001604051908101604052809291908181526020016000905b82821015612195578382906000526020600020018054600181600116156101000203166002900480601f0160208091040260200160405190810160405280929190818152602001828054600181600116156101000203166002900480156121815780601f1061215657610100808354040283529160200191612181565b820191906000526020600020905b81548152906001019060200180831161216457829003601f168201915b5050505050815260200190600101906120d9565b505050509050600080905060008090505b838110156121db576121ca8382815181106121bd57fe5b6020026020010151612b38565b8201915080806001019150506121a6565b506000846064600454816121eb57fe5b0402905080600a886040518082805190602001908083835b602083106122265780518252602082019150602081019050602083039250612203565b6001836020036101000a038019825116818451168082178552505050505050905001915050908152602001604051809103902060008282540392505081905550600360009054906101000a900473ffffffffffffffffffffffffffffffffffffffff1673ffffffffffffffffffffffffffffffffffffffff1663a9059cbb600260009054906101000a900473ffffffffffffffffffffffffffffffffffffffff16836040518363ffffffff1660e01b8152600401808373ffffffffffffffffffffffffffffffffffffffff1673ffffffffffffffffffffffffffffffffffffffff16815260200182815260200192505050602060405180830381600087803b15801561233157600080fd5b505af1158015612345573d6000803e3d6000fd5b505050506040513d602081101561235b57600080fd5b810190808051906020019092919050505050600082600a896040518082805190602001908083835b602083106123a65780518252602082019150602081019050602083039250612383565b6001836020036101000a038019825116818451168082178552505050505050905001915050908152602001604051809103902054816123e157fe5b04905060008090505b858110156128745760008261241187848151811061240457fe5b6020026020010151612b38565b02905060006002828161242057fe5b0490508082039150600c87848151811061243657fe5b60200260200101516040518082805190602001908083835b60208310612471578051825260208201915060208101905060208303925061244e565b6001836020036101000a03801982511681845116808217855250505050505090500191505090815260200160405180910390208054905081816124b057fe5b04905060008090505b600c8885815181106124c757fe5b60200260200101516040518082805190602001908083835b6020831061250257805182526020820191506020810190506020830392506124df565b6001836020036101000a0380198251168184511680821785525050505050509050019150509081526020016040518091039020805490508110156126e357600360009054906101000a900473ffffffffffffffffffffffffffffffffffffffff1673ffffffffffffffffffffffffffffffffffffffff1663a9059cbb600c8a878151811061258c57fe5b60200260200101516040518082805190602001908083835b602083106125c757805182526020820191506020810190506020830392506125a4565b6001836020036101000a0380198251168184511680821785525050505050509050019150509081526020016040518091039020838154811061260557fe5b9060005260206000200160009054906101000a900473ffffffffffffffffffffffffffffffffffffffff16846040518363ffffffff1660e01b8152600401808373ffffffffffffffffffffffffffffffffffffffff1673ffffffffffffffffffffffffffffffffffffffff16815260200182815260200192505050602060405180830381600087803b15801561269a57600080fd5b505af11580156126ae573d6000803e3d6000fd5b505050506040513d60208110156126c457600080fd5b81019080805190602001909291905050505080806001019150506124b9565b50600360009054906101000a900473ffffffffffffffffffffffffffffffffffffffff1673ffffffffffffffffffffffffffffffffffffffff1663a9059cbb600889868151811061273057fe5b60200260200101516040518082805190602001908083835b6020831061276b5780518252602082019150602081019050602083039250612748565b6001836020036101000a038019825116818451168082178552505050505050905001915050908152602001604051809103902060009054906101000a900473ffffffffffffffffffffffffffffffffffffffff16846040518363ffffffff1660e01b8152600401808373ffffffffffffffffffffffffffffffffffffffff1673ffffffffffffffffffffffffffffffffffffffff16815260200182815260200192505050602060405180830381600087803b15801561282957600080fd5b505af115801561283d573d6000803e3d6000fd5b505050506040513d602081101561285357600080fd5b810190808051906020019092919050505050505080806001019150506123ea565b506000600a896040518082805190602001908083835b602083106128ad578051825260208201915060208101905060208303925061288a565b6001836020036101000a0380198251168184511680821785525050505050509050019150509081526020016040518091039020819055507fb60ab8d287f2b4481b193a5affbc156e1e330ada075bc4529448ef79309e49c788876040518080602001838152602001828103825284818151815260200191508051906020019080838360005b8381101561294d578082015181840152602081019050612932565b50505050905090810190601f16801561297a5780820380516001836020036101000a031916815260200191505b50935050505060405180910390a160019650505050505050919050565b60006006826040518082805190602001908083835b602083106129cf57805182526020820191506020810190506020830392506129ac565b6001836020036101000a0380198251168184511680821785525050505050509050019150509081526020016040518091039020805490509050919050565b60005481565b6006828051602081018201805184825260208301602085012081835280955050505050508181548110612a4257fe5b90600052602060002001600091509150508054600181600116156101000203166002900480601f016020809104026020016040519081016040528092919081815260200182805460018160011615610100020316600290048015612ae75780601f10612abc57610100808354040283529160200191612ae7565b820191906000526020600020905b815481529060010190602001808311612aca57829003601f168201915b505050505081565b6008818051602081018201805184825260208301602085012081835280955050505050506000915054906101000a900473ffffffffffffffffffffffffffffffffffffffff1681565b6000600c826040518082805190602001908083835b60208310612b705780518252602082019150602081019050602083039250612b4d565b6001836020036101000a0380198251168184511680821785525050505050509050019150509081526020016040518091039020805490509050919050565b60015481565b600260009054906101000a900473ffffffffffffffffffffffffffffffffffffffff1681565b6000816040516020018082805190602001908083835b60208310612c135780518252602082019150602081019050602083039250612bf0565b6001836020036101000a03801982511681845116808217855250505050505090500191505060405160208183030381529060405280519060200120836040516020018082805190602001908083835b60208310612c855780518252602082019150602081019050602083039250612c62565b6001836020036101000a0380198251168184511680821785525050505050509050019150506040516020818303038152906040528051906020012014905092915050565b600080821480612ce65750828283850292508281612ce357fe5b04145b612d58576040517f08c379a00000000000000000000000000000000000000000000000000000000081526004018080602001828103825260148152602001807f6d756c7469706c69636174696f6e20636865636b00000000000000000000000081525060200191505060405180910390fd5b92915050565b828054600181600116156101000203166002900490600052602060002090601f016020900481019282601f10612d9f57805160ff1916838001178555612dcd565b82800160010185558215612dcd579182015b82811115612dcc578251825591602001919060010190612db1565b5b509050612dda9190612dde565b5090565b612e0091905b80821115612dfc576000816000905550600101612de4565b5090565b9056fe64697363757373696f6e2073686f756c64206e6f74206861766520657870697265647472616e736665722073686f756c64206265207375636365737366756c3a2075736572202d3e20636f6e74726163746269642073686f756c642062652067726561746572207468616e20746865206d696e696d756da165627a7a723058202a7525c2df61e64a3564df2d77acfdb9feca794161270f99c75c56fb73bc40a90029",
  "source": "pragma solidity ^0.5.0;\n\nimport \"./ArgetherToken.sol\";\n\ncontract Forum {\n\n    uint256 public tokenPrice;\n    uint public voteBid;\n    address public admin;\n    ArgetherToken tokenContract;\n\n    uint256 systemPercentage;\n    uint256 voterPercentage;\n\n    //discussionId to postIds in the discussion\n    mapping(string => string[]) public postIdsOf;\n    // postId maps to the parent of that post. It is assumed that all postIds are unique because of MongoDB\n    mapping(string => string) public parentOf;\n    // postId maps to the address of owner\n    mapping(string => address) public ownerOf;\n    // discussionId maps to minBidOf that discussion\n    mapping(string => uint256) public minBidOf;\n    // discussionId maps to the discussion pool amount\n    mapping(string => uint256) public poolOf;\n    // discussionId maps to expiry times\n    mapping(string => uint256) expiryOf;\n    // postId maps to an array containing all the address of voters for that post\n    mapping(string => address[]) public votersOf;\n\n    event NewPost(\n        address indexed _owner,\n        string _discussionId,\n        string _postId,\n        uint256 _bid\n    );\n\n    event Vote(\n        address indexed _user,\n        string _postId\n    );\n\n    event Distribute(\n        string _discussionId,\n        uint _pool\n    );\n\n    // CONSTRUCTOR AND METHODS --->\n    constructor(ArgetherToken _tokenContract, uint256 _tokenPrice, uint256 _voteBid) public {\n        tokenContract = _tokenContract;\n        tokenPrice = _tokenPrice;\n        voteBid = _voteBid;\n        admin = msg.sender;\n        systemPercentage = 10;\n        voterPercentage = 25;\n    }\n\n    function addPost(string memory _discussionId, string memory _postId, string memory _parentId, uint256 _bid) public payable returns (bool) {\n        // if its a new discussion\n        if(compareStringsbyBytes(_parentId, \"0\")){\n            minBidOf[_discussionId] = _bid;\n            expiryOf[_discussionId] = block.timestamp + 172800;\n        }\n        require(msg.value == multiply(_bid, tokenPrice), \"check token multiplication\");\n        require(_bid >= minBidOf[_discussionId], 'bid should be greater than the minimum');\n        require(block.timestamp <= expiryOf[_discussionId], 'discussion should not have expired');\n        require(tokenContract.balanceOf(msg.sender) >= _bid, 'user should have enough balance');\n        require(tokenContract.transferFrom(msg.sender, address(this), _bid), 'transfer should be successful');\n        // add postId to discussion posts, save parentOf post, add bid to discussion pool\n        postIdsOf[_discussionId].push(_postId);\n        ownerOf[_postId] = msg.sender;\n        parentOf[_postId] = _parentId;\n        poolOf[_discussionId] += _bid;\n        emit NewPost(msg.sender, _discussionId, _postId, _bid);\n        return true;\n    }\n    /**\n     *  Check whether the user has already voted on the post before calling this method.\n     * ensure that postId is valid before call\n     * the user will pay a constant of 1 token\n     * vote bid value can be updated internally\n     */\n    function upvote(string memory _discussionId, string memory _postId) public payable returns (bool) {\n        // check discussion expiry\n        require(block.timestamp <= expiryOf[_discussionId], 'discussion should not have expired');\n        // make sure that bid == 1\n        require(msg.value == tokenPrice, 'user should have bid 1 token');\n        // require that voter has enough balance\n        require(tokenContract.balanceOf(msg.sender) >= 1, 'voter should have enough balance');\n        // require that the transfer of tokens is successful\n        require(tokenContract.transferFrom(msg.sender, address(this), 1), 'transfer should be successful: user -> contract');\n        // check if the disId is valid\n        require(poolOf[_discussionId] > 0, 'discussionId must be valid');\n        // create the vote\n        votersOf[_postId].push(msg.sender);\n        // add bid to the discussion pool\n        poolOf[_discussionId] += 1;\n        // trigger vote event\n        emit Vote(msg.sender, _postId);\n        // return bool\n        return true;\n    }\n\n    function distributeRewards(string memory _discussionId) public returns (bool) {\n        // get total posts in the discussion\n        uint pool = poolOf[_discussionId];\n        uint totalPosts = getDiscussionPostCount(_discussionId);\n        string[] memory postArray = postIdsOf[_discussionId];\n        // get total votes\n        uint totalVotes = 0;\n        for(uint i = 0; i < totalPosts; i++){\n            totalVotes += getPostVoteCount(postArray[i]);\n        }\n        // deduct systemPercentage and transfer to admin\n        uint value = (systemPercentage/100)*pool;\n        poolOf[_discussionId] -= value;\n        tokenContract.transfer(admin, value);\n        // calculate the weight of one vote ==== figure out whether this should be rational\n        uint weight = poolOf[_discussionId] / totalVotes;\n        // distribute the pool based on the weight of the votes\n        for(uint i = 0; i < totalPosts; i++) {\n            uint postReward = getPostVoteCount(postArray[i]) * weight;\n            uint voterReward = postReward/2;\n            postReward -= voterReward;\n            voterReward = voterReward/votersOf[postArray[i]].length;\n            // transfers for post voters\n            for(uint j = 0; j < votersOf[postArray[i]].length; j++){\n                tokenContract.transfer(votersOf[postArray[i]][j], voterReward);\n            }\n            // transfers for post owners\n            tokenContract.transfer(ownerOf[postArray[i]], postReward);\n        }\n        // reset the discussion pool\n        poolOf[_discussionId] = 0;\n        // trigger Distribute event\n        emit Distribute(_discussionId, pool);\n        // return a bool\n        return true;\n    }\n\n    // HELPER FUNCTIONS --->\n    function multiply(uint x, uint y) private pure returns (uint z) {\n        require(y == 0 || (z = x * y) / y == x, 'multiplication check');\n    }\n    function compareStringsbyBytes(string memory s1, string memory s2) private pure returns(bool){\n        return keccak256(abi.encodePacked(s1)) == keccak256(abi.encodePacked(s2));\n    }\n    function getDiscussionPostCount(string memory _discussionId) public view returns (uint) {\n        return postIdsOf[_discussionId].length;\n    }\n    function getPostVoteCount(string memory _postId) public view returns (uint) {\n        return votersOf[_postId].length;\n    }\n}",
  "sourcePath": "/home/unas/projects/forum/contracts/Forum.sol",
  "compiler": {
    "name": "solc",
    "version": "0.5.8+commit.23d335f2.Emscripten.clang"
  },
  "schemaVersion": "3.0.12",
  "updatedAt": "2020-02-18T10:54:26.103Z",
  "devdoc": {
    "methods": {}
  },
  "userdoc": {
    "methods": {
      "upvote(string,string)": {
        "notice": "Check whether the user has already voted on the post before calling this method. ensure that postId is valid before call the user will pay a constant of 1 token vote bid value can be updated internally"
      }
    }
  }
}